{
  "contractName": "Organization",
  "abi": [
    {
      "constant": true,
      "inputs": [],
      "name": "pollsCount",
      "outputs": [
        {
          "name": "",
          "type": "uint256"
        }
      ],
      "payable": false,
      "stateMutability": "view",
      "type": "function"
    },
    {
      "constant": true,
      "inputs": [
        {
          "name": "",
          "type": "uint256"
        }
      ],
      "name": "polls",
      "outputs": [
        {
          "name": "owner",
          "type": "address"
        },
        {
          "name": "title",
          "type": "string"
        },
        {
          "name": "optionsCount",
          "type": "uint256"
        }
      ],
      "payable": false,
      "stateMutability": "view",
      "type": "function"
    },
    {
      "constant": true,
      "inputs": [
        {
          "name": "",
          "type": "uint256"
        },
        {
          "name": "",
          "type": "uint256"
        }
      ],
      "name": "pollOptions",
      "outputs": [
        {
          "name": "id",
          "type": "uint256"
        },
        {
          "name": "name",
          "type": "string"
        },
        {
          "name": "votes",
          "type": "uint256"
        }
      ],
      "payable": false,
      "stateMutability": "view",
      "type": "function"
    },
    {
      "constant": false,
      "inputs": [
        {
          "name": "newOwner",
          "type": "address"
        }
      ],
      "name": "transferOwnership",
      "outputs": [],
      "payable": false,
      "stateMutability": "nonpayable",
      "type": "function"
    },
    {
      "constant": false,
      "inputs": [
        {
          "name": "_member",
          "type": "address"
        }
      ],
      "name": "addMember",
      "outputs": [],
      "payable": false,
      "stateMutability": "nonpayable",
      "type": "function"
    },
    {
      "constant": false,
      "inputs": [
        {
          "name": "_member",
          "type": "address"
        }
      ],
      "name": "addBoardMember",
      "outputs": [],
      "payable": false,
      "stateMutability": "nonpayable",
      "type": "function"
    },
    {
      "constant": false,
      "inputs": [
        {
          "name": "_member",
          "type": "address"
        }
      ],
      "name": "removeBoardMember",
      "outputs": [],
      "payable": false,
      "stateMutability": "nonpayable",
      "type": "function"
    },
    {
      "constant": false,
      "inputs": [
        {
          "name": "_title",
          "type": "string"
        }
      ],
      "name": "addPoll",
      "outputs": [],
      "payable": false,
      "stateMutability": "nonpayable",
      "type": "function"
    },
    {
      "constant": false,
      "inputs": [
        {
          "name": "_id",
          "type": "uint256"
        },
        {
          "name": "_name",
          "type": "string"
        }
      ],
      "name": "addOptionToPoll",
      "outputs": [],
      "payable": false,
      "stateMutability": "nonpayable",
      "type": "function"
    },
    {
      "constant": false,
      "inputs": [
        {
          "name": "_pollId",
          "type": "uint256"
        },
        {
          "name": "_optionId",
          "type": "uint256"
        }
      ],
      "name": "vote",
      "outputs": [],
      "payable": false,
      "stateMutability": "nonpayable",
      "type": "function"
    }
  ],
  "bytecode": "0x6080604052336000806101000a81548173ffffffffffffffffffffffffffffffffffffffff021916908373ffffffffffffffffffffffffffffffffffffffff16021790555061147b806100536000396000f3006080604052600436106100a4576000357c0100000000000000000000000000000000000000000000000000000000900463ffffffff168063179d760d146100a95780631eac03ae146100d457806339a169f9146101175780637c31407b1461015a578063a133c70c146101c3578063ac2f007414610236578063b384abef14610316578063ca6d56dc1461034d578063f0114ad114610390578063f2fde38b1461044e575b600080fd5b3480156100b557600080fd5b506100be610491565b6040518082815260200191505060405180910390f35b3480156100e057600080fd5b50610115600480360381019080803573ffffffffffffffffffffffffffffffffffffffff169060200190929190505050610497565b005b34801561012357600080fd5b50610158600480360381019080803573ffffffffffffffffffffffffffffffffffffffff1690602001909291905050506106e5565b005b34801561016657600080fd5b506101c1600480360381019080803590602001908201803590602001908080601f016020809104026020016040519081016040528093929190818152602001838380828437820191505050505050919291929050505061083d565b005b3480156101cf57600080fd5b5061023460048036038101908080359060200190929190803590602001908201803590602001908080601f01602080910402602001604051908101604052809392919081815260200183838082843782019150505050505091929192905050506109f2565b005b34801561024257600080fd5b5061026160048036038101908080359060200190929190505050610b96565b604051808473ffffffffffffffffffffffffffffffffffffffff1673ffffffffffffffffffffffffffffffffffffffff16815260200180602001838152602001828103825284818151815260200191508051906020019080838360005b838110156102d95780820151818401526020810190506102be565b50505050905090810190601f1680156103065780820380516001836020036101000a031916815260200191505b5094505050505060405180910390f35b34801561032257600080fd5b5061034b6004803603810190808035906020019092919080359060200190929190505050610c78565b005b34801561035957600080fd5b5061038e600480360381019080803573ffffffffffffffffffffffffffffffffffffffff169060200190929190505050610f5c565b005b34801561039c57600080fd5b506103c560048036038101908080359060200190929190803590602001909291905050506110a0565b6040518084815260200180602001838152602001828103825284818151815260200191508051906020019080838360005b838110156104115780820151818401526020810190506103f6565b50505050905090810190601f16801561043e5780820380516001836020036101000a031916815260200191505b5094505050505060405180910390f35b34801561045a57600080fd5b5061048f600480360381019080803573ffffffffffffffffffffffffffffffffffffffff16906020019092919050505061116f565b005b60045481565b6000809054906101000a900473ffffffffffffffffffffffffffffffffffffffff1673ffffffffffffffffffffffffffffffffffffffff163373ffffffffffffffffffffffffffffffffffffffff16141515610581576040517f08c379a00000000000000000000000000000000000000000000000000000000081526004018080602001828103825260378152602001807f4f6e6c7920746865206f776e6572206f662074686520636f6e7472616374206381526020017f616e20706572666f726d207468697320616374696f6e2100000000000000000081525060400191505060405180910390fd5b6005600354101515610621576040517f08c379a00000000000000000000000000000000000000000000000000000000081526004018080602001828103825260218152602001807f54686572652063616e206f6e6c79206265203520626f617264206d656d62657281526020017f730000000000000000000000000000000000000000000000000000000000000081525060400191505060405180910390fd5b6001600260008373ffffffffffffffffffffffffffffffffffffffff1673ffffffffffffffffffffffffffffffffffffffff16815260200190815260200160002060006101000a81548160ff02191690831515021790555060018060008373ffffffffffffffffffffffffffffffffffffffff1673ffffffffffffffffffffffffffffffffffffffff16815260200190815260200160002060006101000a81548160ff02191690831515021790555060036000815480929190600101919050555050565b6000809054906101000a900473ffffffffffffffffffffffffffffffffffffffff1673ffffffffffffffffffffffffffffffffffffffff163373ffffffffffffffffffffffffffffffffffffffff161415156107cf576040517f08c379a00000000000000000000000000000000000000000000000000000000081526004018080602001828103825260378152602001807f4f6e6c7920746865206f776e6572206f662074686520636f6e7472616374206381526020017f616e20706572666f726d207468697320616374696f6e2100000000000000000081525060400191505060405180910390fd5b6000600260008373ffffffffffffffffffffffffffffffffffffffff1673ffffffffffffffffffffffffffffffffffffffff16815260200190815260200160002060006101000a81548160ff0219169083151502179055506003600081548092919060019003919050555050565b600260003373ffffffffffffffffffffffffffffffffffffffff1673ffffffffffffffffffffffffffffffffffffffff16815260200190815260200160002060009054906101000a900460ff161515610924576040517f08c379a00000000000000000000000000000000000000000000000000000000081526004018080602001828103825260238152602001807f4f6e6c7920626f617264206d656d626572732063616e2063726561746520706f81526020017f6c6c73000000000000000000000000000000000000000000000000000000000081525060400191505060405180910390fd5b6060604051908101604052803373ffffffffffffffffffffffffffffffffffffffff168152602001828152602001600081525060056000600454815260200190815260200160002060008201518160000160006101000a81548173ffffffffffffffffffffffffffffffffffffffff021916908373ffffffffffffffffffffffffffffffffffffffff16021790555060208201518160010190805190602001906109cf9291906113aa565b506040820151816002015590505060046000815480929190600101919050555050565b6005600083815260200190815260200160002060000160009054906101000a900473ffffffffffffffffffffffffffffffffffffffff1673ffffffffffffffffffffffffffffffffffffffff163373ffffffffffffffffffffffffffffffffffffffff16141515610acb576040517f08c379a000000000000000000000000000000000000000000000000000000000815260040180806020018281038252601f8152602001807f4f6e6c7920706f6c6c206f776e65722063616e20616464206f7074696f6e730081525060200191505060405180910390fd5b60606040519081016040528060056000858152602001908152602001600020600201548152602001828152602001600081525060066000848152602001908152602001600020600060056000868152602001908152602001600020600201548152602001908152602001600020600082015181600001556020820151816001019080519060200190610b5e9291906113aa565b506040820151816002015590505060056000838152602001908152602001600020600201600081548092919060010191905055505050565b60056020528060005260406000206000915090508060000160009054906101000a900473ffffffffffffffffffffffffffffffffffffffff1690806001018054600181600116156101000203166002900480601f016020809104026020016040519081016040528092919081815260200182805460018160011615610100020316600290048015610c685780601f10610c3d57610100808354040283529160200191610c68565b820191906000526020600020905b815481529060010190602001808311610c4b57829003601f168201915b5050505050908060020154905083565b600160003373ffffffffffffffffffffffffffffffffffffffff1673ffffffffffffffffffffffffffffffffffffffff16815260200190815260200160002060009054906101000a900460ff161515610d39576040517f08c379a00000000000000000000000000000000000000000000000000000000081526004018080602001828103825260158152602001807f4f6e6c79206d656d626572732063616e20766f7465000000000000000000000081525060200191505060405180910390fd5b3373ffffffffffffffffffffffffffffffffffffffff166005600084815260200190815260200160002060000160009054906101000a900473ffffffffffffffffffffffffffffffffffffffff1673ffffffffffffffffffffffffffffffffffffffff1614151515610e13576040517f08c379a000000000000000000000000000000000000000000000000000000000815260040180806020018281038252601f8152602001807f4f776e657273206f662074686520706f6c6c732063616e6e6f7420766f74650081525060200191505060405180910390fd5b610e1d33836112d8565b151515610eb8576040517f08c379a00000000000000000000000000000000000000000000000000000000081526004018080602001828103825260298152602001807f4d656d626572732061726520616c6c6f77656420746f20766f7465206f6e636581526020017f2070657220706f6c6c000000000000000000000000000000000000000000000081525060400191505060405180910390fd5b60066000838152602001908152602001600020600082815260200190815260200160002060020160008154809291906001019190505550600760003373ffffffffffffffffffffffffffffffffffffffff1673ffffffffffffffffffffffffffffffffffffffff1681526020019081526020016000208290806001815401808255809150509060018203906000526020600020016000909192909190915055505050565b6000809054906101000a900473ffffffffffffffffffffffffffffffffffffffff1673ffffffffffffffffffffffffffffffffffffffff163373ffffffffffffffffffffffffffffffffffffffff16141515611046576040517f08c379a00000000000000000000000000000000000000000000000000000000081526004018080602001828103825260378152602001807f4f6e6c7920746865206f776e6572206f662074686520636f6e7472616374206381526020017f616e20706572666f726d207468697320616374696f6e2100000000000000000081525060400191505060405180910390fd5b60018060008373ffffffffffffffffffffffffffffffffffffffff1673ffffffffffffffffffffffffffffffffffffffff16815260200190815260200160002060006101000a81548160ff02191690831515021790555050565b600660205281600052604060002060205280600052604060002060009150915050806000015490806001018054600181600116156101000203166002900480601f01602080910402602001604051908101604052809291908181526020018280546001816001161561010002031660029004801561115f5780601f106111345761010080835404028352916020019161115f565b820191906000526020600020905b81548152906001019060200180831161114257829003601f168201915b5050505050908060020154905083565b6000809054906101000a900473ffffffffffffffffffffffffffffffffffffffff1673ffffffffffffffffffffffffffffffffffffffff163373ffffffffffffffffffffffffffffffffffffffff16141515611259576040517f08c379a00000000000000000000000000000000000000000000000000000000081526004018080602001828103825260378152602001807f4f6e6c7920746865206f776e6572206f662074686520636f6e7472616374206381526020017f616e20706572666f726d207468697320616374696f6e2100000000000000000081525060400191505060405180910390fd5b600073ffffffffffffffffffffffffffffffffffffffff168173ffffffffffffffffffffffffffffffffffffffff161415151561129557600080fd5b806000806101000a81548173ffffffffffffffffffffffffffffffffffffffff021916908373ffffffffffffffffffffffffffffffffffffffff16021790555050565b600080600090505b600760008573ffffffffffffffffffffffffffffffffffffffff1673ffffffffffffffffffffffffffffffffffffffff1681526020019081526020016000208054905081101561139e5782600760008673ffffffffffffffffffffffffffffffffffffffff1673ffffffffffffffffffffffffffffffffffffffff1681526020019081526020016000208281548110151561137757fe5b9060005260206000200154141561139157600191506113a3565b80806001019150506112e0565b600091505b5092915050565b828054600181600116156101000203166002900490600052602060002090601f016020900481019282601f106113eb57805160ff1916838001178555611419565b82800160010185558215611419579182015b828111156114185782518255916020019190600101906113fd565b5b509050611426919061142a565b5090565b61144c91905b80821115611448576000816000905550600101611430565b5090565b905600a165627a7a7230582079114e7770026f88e071dbb933eed2ac6b6c31078f7667cfeec90bde6e7f7e490029",
  "source": "pragma solidity ^0.4.22;\r\n\r\nimport \"./Ownable.sol\";\r\n\r\ncontract Organization is Ownable {\r\n    // Define options\r\n    struct Option {\r\n        uint id;\r\n        string name;\r\n        uint votes;\r\n    }\r\n    // Define polls\r\n    struct Poll {\r\n        address owner;\r\n        string title;\r\n        uint optionsCount;\r\n    }\r\n    // Define mapping for members\r\n    mapping(address => bool) private members;\r\n    // Define mapping for board members\r\n    mapping(address => bool) private boardMembers;\r\n    // Keep track of board members number\r\n    uint private boardCount;\r\n    // Define counter that keeps track of poll number\r\n    uint public pollsCount;\r\n    // Define mappings that store polls and poll options\r\n    mapping(uint => Poll) public polls;\r\n    mapping(uint => mapping(uint => Option)) public pollOptions;\r\n    // Define mapping that track who voted for which polls\r\n    mapping(address => uint[]) private voted;\r\n\r\n    function addMember(address _member) public onlyOwner {\r\n        members[_member] = true;\r\n    }\r\n\r\n    function addBoardMember(address _member) public onlyOwner {\r\n        require(boardCount < 5, \"There can only be 5 board members\");\r\n        boardMembers[_member] = true;\r\n        members[_member] = true;\r\n        boardCount++;\r\n    }\r\n\r\n    function removeBoardMember(address _member) public onlyOwner {\r\n        boardMembers[_member] = false;\r\n        boardCount--;\r\n    }\r\n\r\n    function addPoll(string _title) public onlyBoard {\r\n        polls[pollsCount] = Poll(msg.sender, _title, 0);\r\n        pollsCount++;\r\n    }\r\n\r\n    function addOptionToPoll(uint _id, string _name) public {\r\n        require(msg.sender == polls[_id].owner, \"Only poll owner can add options\");\r\n        pollOptions[_id][polls[_id].optionsCount] = Option(polls[_id].optionsCount, _name, 0);\r\n        polls[_id].optionsCount++;\r\n    }\r\n\r\n    function vote(uint _pollId, uint _optionId) public onlyMembers {\r\n        require(polls[_pollId].owner != msg.sender, \"Owners of the polls cannot vote\");\r\n        require(!hasVoted(msg.sender, _pollId), \"Members are allowed to vote once per poll\");\r\n        pollOptions[_pollId][_optionId].votes++;\r\n        voted[msg.sender].push(_pollId);\r\n    }\r\n\r\n    function hasVoted(address _sender, uint _id) private returns (bool) {\r\n        for(uint i = 0; i < voted[_sender].length; i++) {\r\n            if(voted[_sender][i] == _id) {\r\n                return true;\r\n            }\r\n        }\r\n        return false;\r\n    }\r\n\r\n    modifier onlyMembers() {\r\n        require(members[msg.sender], \"Only members can vote\");\r\n        _;\r\n    }\r\n\r\n    modifier onlyBoard() {\r\n        require(boardMembers[msg.sender], \"Only board members can create polls\");\r\n        _;\r\n    }\r\n}\r\n",
  "sourcePath": "C:\\Users\\Vasil\\Documents\\School\\Fontys\\T&H\\code\\organization\\contracts\\Organization.sol",
  "compiler": {
    "name": "solc",
    "version": "0.4.24+commit.e67f0147.Emscripten.clang"
  },
  "schemaVersion": "2.0.0",
  "updatedAt": "2018-12-09T14:44:14.043Z"
}